{
  "contractName": "BikeRent",
  "abi": [
    {
      "inputs": [],
      "stateMutability": "payable",
      "type": "constructor",
      "payable": true
    },
    {
      "anonymous": false,
      "inputs": [
        {
          "indexed": false,
          "internalType": "uint256",
          "name": "id",
          "type": "uint256"
        },
        {
          "indexed": false,
          "internalType": "string",
          "name": "description",
          "type": "string"
        },
        {
          "indexed": false,
          "internalType": "address",
          "name": "owner",
          "type": "address"
        },
        {
          "indexed": false,
          "internalType": "bool",
          "name": "available",
          "type": "bool"
        },
        {
          "indexed": false,
          "internalType": "uint256",
          "name": "rentPrice",
          "type": "uint256"
        },
        {
          "indexed": false,
          "internalType": "uint256",
          "name": "collateral",
          "type": "uint256"
        }
      ],
      "name": "BikeCreation",
      "type": "event"
    },
    {
      "anonymous": false,
      "inputs": [
        {
          "indexed": false,
          "internalType": "address",
          "name": "renter",
          "type": "address"
        },
        {
          "indexed": false,
          "internalType": "address",
          "name": "rentee",
          "type": "address"
        },
        {
          "indexed": false,
          "internalType": "uint256",
          "name": "bike_id",
          "type": "uint256"
        },
        {
          "indexed": false,
          "internalType": "uint256",
          "name": "rentPrice",
          "type": "uint256"
        },
        {
          "indexed": false,
          "internalType": "uint256",
          "name": "collateral",
          "type": "uint256"
        }
      ],
      "name": "BikeRented",
      "type": "event"
    },
    {
      "anonymous": false,
      "inputs": [
        {
          "indexed": false,
          "internalType": "address",
          "name": "renter",
          "type": "address"
        },
        {
          "indexed": false,
          "internalType": "address",
          "name": "rentee",
          "type": "address"
        },
        {
          "indexed": false,
          "internalType": "uint256",
          "name": "bike_id",
          "type": "uint256"
        }
      ],
      "name": "BikeReturned",
      "type": "event"
    },
    {
      "anonymous": false,
      "inputs": [
        {
          "indexed": false,
          "internalType": "uint256",
          "name": "collateral",
          "type": "uint256"
        },
        {
          "indexed": false,
          "internalType": "address",
          "name": "rentee",
          "type": "address"
        }
      ],
      "name": "CollateralReturned",
      "type": "event"
    },
    {
      "anonymous": false,
      "inputs": [
        {
          "indexed": true,
          "internalType": "bytes32",
          "name": "role",
          "type": "bytes32"
        },
        {
          "indexed": true,
          "internalType": "bytes32",
          "name": "previousAdminRole",
          "type": "bytes32"
        },
        {
          "indexed": true,
          "internalType": "bytes32",
          "name": "newAdminRole",
          "type": "bytes32"
        }
      ],
      "name": "RoleAdminChanged",
      "type": "event"
    },
    {
      "anonymous": false,
      "inputs": [
        {
          "indexed": true,
          "internalType": "bytes32",
          "name": "role",
          "type": "bytes32"
        },
        {
          "indexed": true,
          "internalType": "address",
          "name": "account",
          "type": "address"
        },
        {
          "indexed": true,
          "internalType": "address",
          "name": "sender",
          "type": "address"
        }
      ],
      "name": "RoleGranted",
      "type": "event"
    },
    {
      "anonymous": false,
      "inputs": [
        {
          "indexed": true,
          "internalType": "bytes32",
          "name": "role",
          "type": "bytes32"
        },
        {
          "indexed": true,
          "internalType": "address",
          "name": "account",
          "type": "address"
        },
        {
          "indexed": true,
          "internalType": "address",
          "name": "sender",
          "type": "address"
        }
      ],
      "name": "RoleRevoked",
      "type": "event"
    },
    {
      "inputs": [],
      "name": "DEFAULT_ADMIN_ROLE",
      "outputs": [
        {
          "internalType": "bytes32",
          "name": "",
          "type": "bytes32"
        }
      ],
      "stateMutability": "view",
      "type": "function",
      "constant": true
    },
    {
      "inputs": [],
      "name": "bikeCount",
      "outputs": [
        {
          "internalType": "uint256",
          "name": "",
          "type": "uint256"
        }
      ],
      "stateMutability": "view",
      "type": "function",
      "constant": true
    },
    {
      "inputs": [
        {
          "internalType": "uint256",
          "name": "",
          "type": "uint256"
        }
      ],
      "name": "bikeRentals",
      "outputs": [
        {
          "internalType": "uint256",
          "name": "id",
          "type": "uint256"
        },
        {
          "internalType": "address payable",
          "name": "renter",
          "type": "address"
        },
        {
          "internalType": "address payable",
          "name": "rentee",
          "type": "address"
        },
        {
          "internalType": "uint256",
          "name": "bike_id",
          "type": "uint256"
        },
        {
          "internalType": "uint256",
          "name": "rentPrice",
          "type": "uint256"
        },
        {
          "internalType": "uint256",
          "name": "collateral",
          "type": "uint256"
        },
        {
          "internalType": "bool",
          "name": "renterReturnApproval",
          "type": "bool"
        },
        {
          "internalType": "bool",
          "name": "renteeReturnApproval",
          "type": "bool"
        }
      ],
      "stateMutability": "view",
      "type": "function",
      "constant": true
    },
    {
      "inputs": [],
      "name": "bikeRentalsCount",
      "outputs": [
        {
          "internalType": "uint256",
          "name": "",
          "type": "uint256"
        }
      ],
      "stateMutability": "view",
      "type": "function",
      "constant": true
    },
    {
      "inputs": [
        {
          "internalType": "uint256",
          "name": "",
          "type": "uint256"
        }
      ],
      "name": "bikes",
      "outputs": [
        {
          "internalType": "uint256",
          "name": "id",
          "type": "uint256"
        },
        {
          "internalType": "string",
          "name": "description",
          "type": "string"
        },
        {
          "internalType": "address payable",
          "name": "owner",
          "type": "address"
        },
        {
          "internalType": "bool",
          "name": "available",
          "type": "bool"
        },
        {
          "internalType": "uint256",
          "name": "rentPrice",
          "type": "uint256"
        },
        {
          "internalType": "uint256",
          "name": "collateral",
          "type": "uint256"
        }
      ],
      "stateMutability": "view",
      "type": "function",
      "constant": true
    },
    {
      "inputs": [
        {
          "internalType": "bytes32",
          "name": "role",
          "type": "bytes32"
        }
      ],
      "name": "getRoleAdmin",
      "outputs": [
        {
          "internalType": "bytes32",
          "name": "",
          "type": "bytes32"
        }
      ],
      "stateMutability": "view",
      "type": "function",
      "constant": true
    },
    {
      "inputs": [
        {
          "internalType": "bytes32",
          "name": "role",
          "type": "bytes32"
        },
        {
          "internalType": "uint256",
          "name": "index",
          "type": "uint256"
        }
      ],
      "name": "getRoleMember",
      "outputs": [
        {
          "internalType": "address",
          "name": "",
          "type": "address"
        }
      ],
      "stateMutability": "view",
      "type": "function",
      "constant": true
    },
    {
      "inputs": [
        {
          "internalType": "bytes32",
          "name": "role",
          "type": "bytes32"
        }
      ],
      "name": "getRoleMemberCount",
      "outputs": [
        {
          "internalType": "uint256",
          "name": "",
          "type": "uint256"
        }
      ],
      "stateMutability": "view",
      "type": "function",
      "constant": true
    },
    {
      "inputs": [
        {
          "internalType": "bytes32",
          "name": "role",
          "type": "bytes32"
        },
        {
          "internalType": "address",
          "name": "account",
          "type": "address"
        }
      ],
      "name": "grantRole",
      "outputs": [],
      "stateMutability": "nonpayable",
      "type": "function"
    },
    {
      "inputs": [
        {
          "internalType": "bytes32",
          "name": "role",
          "type": "bytes32"
        },
        {
          "internalType": "address",
          "name": "account",
          "type": "address"
        }
      ],
      "name": "hasRole",
      "outputs": [
        {
          "internalType": "bool",
          "name": "",
          "type": "bool"
        }
      ],
      "stateMutability": "view",
      "type": "function",
      "constant": true
    },
    {
      "inputs": [
        {
          "internalType": "address",
          "name": "",
          "type": "address"
        }
      ],
      "name": "lockedCollateral",
      "outputs": [
        {
          "internalType": "uint256",
          "name": "",
          "type": "uint256"
        }
      ],
      "stateMutability": "view",
      "type": "function",
      "constant": true
    },
    {
      "inputs": [
        {
          "internalType": "bytes32",
          "name": "role",
          "type": "bytes32"
        },
        {
          "internalType": "address",
          "name": "account",
          "type": "address"
        }
      ],
      "name": "renounceRole",
      "outputs": [],
      "stateMutability": "nonpayable",
      "type": "function"
    },
    {
      "inputs": [
        {
          "internalType": "bytes32",
          "name": "role",
          "type": "bytes32"
        },
        {
          "internalType": "address",
          "name": "account",
          "type": "address"
        }
      ],
      "name": "revokeRole",
      "outputs": [],
      "stateMutability": "nonpayable",
      "type": "function"
    },
    {
      "inputs": [],
      "name": "getBalance",
      "outputs": [
        {
          "internalType": "uint256",
          "name": "",
          "type": "uint256"
        }
      ],
      "stateMutability": "view",
      "type": "function",
      "constant": true
    },
    {
      "inputs": [
        {
          "internalType": "uint256",
          "name": "amount",
          "type": "uint256"
        }
      ],
      "name": "deposit",
      "outputs": [],
      "stateMutability": "payable",
      "type": "function",
      "payable": true
    },
    {
      "inputs": [
        {
          "internalType": "address payable",
          "name": "to",
          "type": "address"
        },
        {
          "internalType": "uint256",
          "name": "amount",
          "type": "uint256"
        }
      ],
      "name": "withdrawToAccount",
      "outputs": [],
      "stateMutability": "nonpayable",
      "type": "function"
    },
    {
      "inputs": [
        {
          "internalType": "string",
          "name": "_description",
          "type": "string"
        },
        {
          "internalType": "bool",
          "name": "_available",
          "type": "bool"
        },
        {
          "internalType": "uint256",
          "name": "_rentPrice",
          "type": "uint256"
        },
        {
          "internalType": "uint256",
          "name": "_collateral",
          "type": "uint256"
        }
      ],
      "name": "createBike",
      "outputs": [],
      "stateMutability": "nonpayable",
      "type": "function"
    },
    {
      "inputs": [
        {
          "internalType": "uint256",
          "name": "_id",
          "type": "uint256"
        }
      ],
      "name": "rentBike",
      "outputs": [],
      "stateMutability": "payable",
      "type": "function",
      "payable": true
    },
    {
      "inputs": [
        {
          "internalType": "uint256",
          "name": "_id",
          "type": "uint256"
        }
      ],
      "name": "renterReturnApprove",
      "outputs": [
        {
          "internalType": "bool",
          "name": "",
          "type": "bool"
        }
      ],
      "stateMutability": "nonpayable",
      "type": "function"
    },
    {
      "inputs": [
        {
          "internalType": "uint256",
          "name": "_id",
          "type": "uint256"
        }
      ],
      "name": "renteeReturnApprove",
      "outputs": [
        {
          "internalType": "bool",
          "name": "",
          "type": "bool"
        }
      ],
      "stateMutability": "nonpayable",
      "type": "function"
    },
    {
      "inputs": [
        {
          "internalType": "uint256",
          "name": "_id",
          "type": "uint256"
        }
      ],
      "name": "claimCollateral",
      "outputs": [],
      "stateMutability": "nonpayable",
      "type": "function"
    }
  ],
  "bytecode": "0x6080604052600a6007556200001e6000801b336200002460201b60201c565b620001ba565b6200003682826200003a60201b60201c565b5050565b6200006881600080858152602001908152602001600020600001620000dd60201b62002ded1790919060201c565b15620000d9576200007e6200011560201b60201c565b73ffffffffffffffffffffffffffffffffffffffff168173ffffffffffffffffffffffffffffffffffffffff16837f2f8788117e7eff1d82e926ec794901d17c78024a50270940304540a733656f0d60405160405180910390a45b5050565b60006200010d836000018373ffffffffffffffffffffffffffffffffffffffff1660001b6200011d60201b60201c565b905092915050565b600033905090565b60006200013183836200019760201b60201c565b6200018c57826000018290806001815401808255809150506001900390600052602060002001600090919091909150558260000180549050836001016000848152602001908152602001600020819055506001905062000191565b600090505b92915050565b600080836001016000848152602001908152602001600020541415905092915050565b61345180620001ca6000396000f3fe60806040526004361061012a5760003560e01c80639010d07c116100ab578063b6b55f251161006f578063b6b55f25146107b5578063c2b1a472146107e3578063c49785b41461083e578063ca15c87314610879578063d547741f146108c8578063f4f3bc90146109235761012a565b80639010d07c146105da57806391d148541461065f57806392bdf9ba146106d25780639dd6665e14610737578063a217fddf1461078a5761012a565b806336568abe116100f257806336568abe1461033f5780633c3edbc41461039a57806350a57daa146103c55780635c526e19146104a55780637ad8f224146105ac5761012a565b806312065fe01461012f5780631e259b321461015a578063248a9ca3146102425780632f2ff15d1461029157806331735778146102ec575b600080fd5b34801561013b57600080fd5b5061014461094e565b6040518082815260200191505060405180910390f35b34801561016657600080fd5b506102406004803603608081101561017d57600080fd5b810190808035906020019064010000000081111561019a57600080fd5b8201836020820111156101ac57600080fd5b803590602001918460018302840111640100000000831117156101ce57600080fd5b91908080601f016020809104026020016040519081016040528093929190818152602001838380828437600081840152601f19601f8201169050808301925050505050505091929192908035151590602001909291908035906020019092919080359060200190929190505050610956565b005b34801561024e57600080fd5b5061027b6004803603602081101561026557600080fd5b8101908080359060200190929190505050610cc8565b6040518082815260200191505060405180910390f35b34801561029d57600080fd5b506102ea600480360360408110156102b457600080fd5b8101908080359060200190929190803573ffffffffffffffffffffffffffffffffffffffff169060200190929190505050610ce7565b005b3480156102f857600080fd5b506103256004803603602081101561030f57600080fd5b8101908080359060200190929190505050610d70565b604051808215151515815260200191505060405180910390f35b34801561034b57600080fd5b506103986004803603604081101561036257600080fd5b8101908080359060200190929190803573ffffffffffffffffffffffffffffffffffffffff1690602001909291905050506113d9565b005b3480156103a657600080fd5b506103af611472565b6040518082815260200191505060405180910390f35b3480156103d157600080fd5b506103fe600480360360208110156103e857600080fd5b8101908080359060200190929190505050611478565b604051808981526020018873ffffffffffffffffffffffffffffffffffffffff1673ffffffffffffffffffffffffffffffffffffffff1681526020018773ffffffffffffffffffffffffffffffffffffffff1673ffffffffffffffffffffffffffffffffffffffff16815260200186815260200185815260200184815260200183151515158152602001821515151581526020019850505050505050505060405180910390f35b3480156104b157600080fd5b506104de600480360360208110156104c857600080fd5b810190808035906020019092919050505061151a565b60405180878152602001806020018673ffffffffffffffffffffffffffffffffffffffff1673ffffffffffffffffffffffffffffffffffffffff16815260200185151515158152602001848152602001838152602001828103825287818151815260200191508051906020019080838360005b8381101561056c578082015181840152602081019050610551565b50505050905090810190601f1680156105995780820380516001836020036101000a031916815260200191505b5097505050505050505060405180910390f35b6105d8600480360360208110156105c257600080fd5b810190808035906020019092919050505061161b565b005b3480156105e657600080fd5b5061061d600480360360408110156105fd57600080fd5b810190808035906020019092919080359060200190929190505050611d63565b604051808273ffffffffffffffffffffffffffffffffffffffff1673ffffffffffffffffffffffffffffffffffffffff16815260200191505060405180910390f35b34801561066b57600080fd5b506106b86004803603604081101561068257600080fd5b8101908080359060200190929190803573ffffffffffffffffffffffffffffffffffffffff169060200190929190505050611d94565b604051808215151515815260200191505060405180910390f35b3480156106de57600080fd5b50610721600480360360208110156106f557600080fd5b81019080803573ffffffffffffffffffffffffffffffffffffffff169060200190929190505050611dc5565b6040518082815260200191505060405180910390f35b34801561074357600080fd5b506107706004803603602081101561075a57600080fd5b8101908080359060200190929190505050611ddd565b604051808215151515815260200191505060405180910390f35b34801561079657600080fd5b5061079f612446565b6040518082815260200191505060405180910390f35b6107e1600480360360208110156107cb57600080fd5b810190808035906020019092919050505061244d565b005b3480156107ef57600080fd5b5061083c6004803603604081101561080657600080fd5b81019080803573ffffffffffffffffffffffffffffffffffffffff1690602001909291908035906020019092919050505061245c565b005b34801561084a57600080fd5b506108776004803603602081101561086157600080fd5b810190808035906020019092919050505061259b565b005b34801561088557600080fd5b506108b26004803603602081101561089c57600080fd5b8101908080359060200190929190505050612a09565b6040518082815260200191505060405180910390f35b3480156108d457600080fd5b50610921600480360360408110156108eb57600080fd5b8101908080359060200190929190803573ffffffffffffffffffffffffffffffffffffffff169060200190929190505050612a2f565b005b34801561092f57600080fd5b50610938612ab8565b6040518082815260200191505060405180910390f35b600047905090565b60008451116109cd576040517f08c379a000000000000000000000000000000000000000000000000000000000815260040180806020018281038252601a8152602001807f42696b65206d7573742068617665206465736372697074696f6e00000000000081525060200191505060405180910390fd5b60008211610a43576040517f08c379a000000000000000000000000000000000000000000000000000000000815260040180806020018281038252601b8152602001807f42696b65206d757374206861766520612072656e74207072696365000000000081525060200191505060405180910390fd5b60008111610ab9576040517f08c379a000000000000000000000000000000000000000000000000000000000815260040180806020018281038252601b8152602001807f42696b65206d7573742068617665206120636f6c6c61746572616c000000000081525060200191505060405180910390fd5b6040518060c0016040528060015481526020018581526020013373ffffffffffffffffffffffffffffffffffffffff168152602001841515815260200183815260200182815250600360006001548152602001908152602001600020600082015181600001556020820151816001019080519060200190610b3b9291906131e2565b5060408201518160020160006101000a81548173ffffffffffffffffffffffffffffffffffffffff021916908373ffffffffffffffffffffffffffffffffffffffff16021790555060608201518160020160146101000a81548160ff0219169083151502179055506080820151816003015560a082015181600401559050507f8a80e4f747de53eca9a5e140d799a2485ddc13d3c52f521cfaeca619e47ada43600154853386868660405180878152602001806020018673ffffffffffffffffffffffffffffffffffffffff1673ffffffffffffffffffffffffffffffffffffffff16815260200185151515158152602001848152602001838152602001828103825287818151815260200191508051906020019080838360005b83811015610c71578082015181840152602081019050610c56565b50505050905090810190601f168015610c9e5780820380516001836020036101000a031916815260200191505b5097505050505050505060405180910390a160016000815480929190600101919050555050505050565b6000806000838152602001908152602001600020600201549050919050565b610d0d60008084815260200190815260200160002060020154610d08612abe565b611d94565b610d62576040517f08c379a000000000000000000000000000000000000000000000000000000000815260040180806020018281038252602f81526020018061336d602f913960400191505060405180910390fd5b610d6c8282612ac6565b5050565b6000610d7a613262565b6004600084815260200190815260200160002060405180610100016040529081600082015481526020016001820160009054906101000a900473ffffffffffffffffffffffffffffffffffffffff1673ffffffffffffffffffffffffffffffffffffffff1673ffffffffffffffffffffffffffffffffffffffff1681526020016002820160009054906101000a900473ffffffffffffffffffffffffffffffffffffffff1673ffffffffffffffffffffffffffffffffffffffff1673ffffffffffffffffffffffffffffffffffffffff1681526020016003820154815260200160048201548152602001600582015481526020016006820160009054906101000a900460ff161515151581526020016006820160019054906101000a900460ff16151515158152505090503373ffffffffffffffffffffffffffffffffffffffff16816040015173ffffffffffffffffffffffffffffffffffffffff1614610f4a576040517f08c379a000000000000000000000000000000000000000000000000000000000815260040180806020018281038252601c8152602001807f4f6e6c792072656e746565206d617920617070726f766520746869730000000081525060200191505060405180910390fd5b8060e0015115610fc2576040517f08c379a00000000000000000000000000000000000000000000000000000000081526004018080602001828103825260178152602001807f417070726f76616c20616c72656164792073746174656400000000000000000081525060200191505060405180910390fd5b60018160e001901515908115158152505080600460008581526020019081526020016000206000820151816000015560208201518160010160006101000a81548173ffffffffffffffffffffffffffffffffffffffff021916908373ffffffffffffffffffffffffffffffffffffffff16021790555060408201518160020160006101000a81548173ffffffffffffffffffffffffffffffffffffffff021916908373ffffffffffffffffffffffffffffffffffffffff160217905550606082015181600301556080820151816004015560a0820151816005015560c08201518160060160006101000a81548160ff02191690831515021790555060e08201518160060160016101000a81548160ff0219169083151502179055509050508060c0015180156110f257508060e001515b156113cf576110ff6132d7565b60036000836060015181526020019081526020016000206040518060c001604052908160008201548152602001600182018054600181600116156101000203166002900480601f0160208091040260200160405190810160405280929190818152602001828054600181600116156101000203166002900480156111c45780601f10611199576101008083540402835291602001916111c4565b820191906000526020600020905b8154815290600101906020018083116111a757829003601f168201915b505050505081526020016002820160009054906101000a900473ffffffffffffffffffffffffffffffffffffffff1673ffffffffffffffffffffffffffffffffffffffff1673ffffffffffffffffffffffffffffffffffffffff1681526020016002820160149054906101000a900460ff1615151515815260200160038201548152602001600482015481525050905060018160600190151590811515815250508060036000846060015181526020019081526020016000206000820151816000015560208201518160010190805190602001906112a39291906131e2565b5060408201518160020160006101000a81548173ffffffffffffffffffffffffffffffffffffffff021916908373ffffffffffffffffffffffffffffffffffffffff16021790555060608201518160020160146101000a81548160ff0219169083151502179055506080820151816003015560a082015181600401559050507f3401aba7d2717bac7fdc0052919bae1dfa0c66f64e657513ceb444c2d4925799826020015183604001518460600151604051808473ffffffffffffffffffffffffffffffffffffffff1673ffffffffffffffffffffffffffffffffffffffff1681526020018373ffffffffffffffffffffffffffffffffffffffff1673ffffffffffffffffffffffffffffffffffffffff168152602001828152602001935050505060405180910390a1505b6001915050919050565b6113e1612abe565b73ffffffffffffffffffffffffffffffffffffffff168173ffffffffffffffffffffffffffffffffffffffff1614611464576040517f08c379a000000000000000000000000000000000000000000000000000000000815260040180806020018281038252602f8152602001806133ed602f913960400191505060405180910390fd5b61146e8282612b59565b5050565b60025481565b60046020528060005260406000206000915090508060000154908060010160009054906101000a900473ffffffffffffffffffffffffffffffffffffffff16908060020160009054906101000a900473ffffffffffffffffffffffffffffffffffffffff16908060030154908060040154908060050154908060060160009054906101000a900460ff16908060060160019054906101000a900460ff16905088565b6003602052806000526040600020600091509050806000015490806001018054600181600116156101000203166002900480601f0160208091040260200160405190810160405280929190818152602001828054600181600116156101000203166002900480156115cc5780601f106115a1576101008083540402835291602001916115cc565b820191906000526020600020905b8154815290600101906020018083116115af57829003601f168201915b5050505050908060020160009054906101000a900473ffffffffffffffffffffffffffffffffffffffff16908060020160149054906101000a900460ff16908060030154908060040154905086565b6116236132d7565b600360008381526020019081526020016000206040518060c001604052908160008201548152602001600182018054600181600116156101000203166002900480601f0160208091040260200160405190810160405280929190818152602001828054600181600116156101000203166002900480156116e45780601f106116b9576101008083540402835291602001916116e4565b820191906000526020600020905b8154815290600101906020018083116116c757829003601f168201915b505050505081526020016002820160009054906101000a900473ffffffffffffffffffffffffffffffffffffffff1673ffffffffffffffffffffffffffffffffffffffff1673ffffffffffffffffffffffffffffffffffffffff1681526020016002820160149054906101000a900460ff1615151515815260200160038201548152602001600482015481525050905080606001516117eb576040517f08c379a000000000000000000000000000000000000000000000000000000000815260040180806020018281038252601b8152602001807f4f6f70732c2062696b65206973206e6f7420617661696c61626c65000000000081525060200191505060405180910390fd5b6118068160a001518260800151612bec90919063ffffffff16565b341461187a576040517f08c379a00000000000000000000000000000000000000000000000000000000081526004018080602001828103825260128152602001807f496e73756666696369656e742066756e6473000000000000000000000000000081525060200191505060405180910390fd5b6000816040015190503373ffffffffffffffffffffffffffffffffffffffff168173ffffffffffffffffffffffffffffffffffffffff161415611925576040517f08c379a000000000000000000000000000000000000000000000000000000000815260040180806020018281038252601e8152602001807f596f752063616e7427742072656e7420796f7572206f776e2062696b6521000081525060200191505060405180910390fd5b600061193e836080015134612c7490919063ffffffff16565b90506000600560003373ffffffffffffffffffffffffffffffffffffffff1673ffffffffffffffffffffffffffffffffffffffff1681526020019081526020016000205490506119978183612bec90919063ffffffff16565b600560003373ffffffffffffffffffffffffffffffffffffffff1673ffffffffffffffffffffffffffffffffffffffff1681526020019081526020016000208190555060006119f38560a0015134612c7490919063ffffffff16565b90508373ffffffffffffffffffffffffffffffffffffffff166108fc829081150290604051600060405180830381858888f19350505050158015611a3b573d6000803e3d6000fd5b5060008560600190151590811515815250508460036000888152602001908152602001600020600082015181600001556020820151816001019080519060200190611a879291906131e2565b5060408201518160020160006101000a81548173ffffffffffffffffffffffffffffffffffffffff021916908373ffffffffffffffffffffffffffffffffffffffff16021790555060608201518160020160146101000a81548160ff0219169083151502179055506080820151816003015560a0820151816004015590505060405180610100016040528060025481526020018573ffffffffffffffffffffffffffffffffffffffff1681526020013373ffffffffffffffffffffffffffffffffffffffff16815260200186600001518152602001866080015181526020018660a001518152602001600015158152602001600015158152506004600060025481526020019081526020016000206000820151816000015560208201518160010160006101000a81548173ffffffffffffffffffffffffffffffffffffffff021916908373ffffffffffffffffffffffffffffffffffffffff16021790555060408201518160020160006101000a81548173ffffffffffffffffffffffffffffffffffffffff021916908373ffffffffffffffffffffffffffffffffffffffff160217905550606082015181600301556080820151816004015560a0820151816005015560c08201518160060160006101000a81548160ff02191690831515021790555060e08201518160060160016101000a81548160ff0219169083151502179055509050506002600081548092919060010191905055507fc0e4d2728b84b93df6add67c74a4a76f41e2c65f21bd78b35b85011ca887f2118433876000015188608001518960a00151604051808673ffffffffffffffffffffffffffffffffffffffff1673ffffffffffffffffffffffffffffffffffffffff1681526020018573ffffffffffffffffffffffffffffffffffffffff1673ffffffffffffffffffffffffffffffffffffffff1681526020018481526020018381526020018281526020019550505050505060405180910390a1505050505050565b6000611d8c82600080868152602001908152602001600020600001612cbe90919063ffffffff16565b905092915050565b6000611dbd82600080868152602001908152602001600020600001612cd890919063ffffffff16565b905092915050565b60056020528060005260406000206000915090505481565b6000611de7613262565b6004600084815260200190815260200160002060405180610100016040529081600082015481526020016001820160009054906101000a900473ffffffffffffffffffffffffffffffffffffffff1673ffffffffffffffffffffffffffffffffffffffff1673ffffffffffffffffffffffffffffffffffffffff1681526020016002820160009054906101000a900473ffffffffffffffffffffffffffffffffffffffff1673ffffffffffffffffffffffffffffffffffffffff1673ffffffffffffffffffffffffffffffffffffffff1681526020016003820154815260200160048201548152602001600582015481526020016006820160009054906101000a900460ff161515151581526020016006820160019054906101000a900460ff16151515158152505090503373ffffffffffffffffffffffffffffffffffffffff16816020015173ffffffffffffffffffffffffffffffffffffffff1614611fb7576040517f08c379a000000000000000000000000000000000000000000000000000000000815260040180806020018281038252601c8152602001807f4f6e6c792072656e746572206d617920617070726f766520746869730000000081525060200191505060405180910390fd5b8060c001511561202f576040517f08c379a00000000000000000000000000000000000000000000000000000000081526004018080602001828103825260178152602001807f417070726f76616c20616c72656164792073746174656400000000000000000081525060200191505060405180910390fd5b60018160c001901515908115158152505080600460008581526020019081526020016000206000820151816000015560208201518160010160006101000a81548173ffffffffffffffffffffffffffffffffffffffff021916908373ffffffffffffffffffffffffffffffffffffffff16021790555060408201518160020160006101000a81548173ffffffffffffffffffffffffffffffffffffffff021916908373ffffffffffffffffffffffffffffffffffffffff160217905550606082015181600301556080820151816004015560a0820151816005015560c08201518160060160006101000a81548160ff02191690831515021790555060e08201518160060160016101000a81548160ff0219169083151502179055509050508060c00151801561215f57508060e001515b1561243c5761216c6132d7565b60036000836060015181526020019081526020016000206040518060c001604052908160008201548152602001600182018054600181600116156101000203166002900480601f0160208091040260200160405190810160405280929190818152602001828054600181600116156101000203166002900480156122315780601f1061220657610100808354040283529160200191612231565b820191906000526020600020905b81548152906001019060200180831161221457829003601f168201915b505050505081526020016002820160009054906101000a900473ffffffffffffffffffffffffffffffffffffffff1673ffffffffffffffffffffffffffffffffffffffff1673ffffffffffffffffffffffffffffffffffffffff1681526020016002820160149054906101000a900460ff1615151515815260200160038201548152602001600482015481525050905060018160600190151590811515815250508060036000846060015181526020019081526020016000206000820151816000015560208201518160010190805190602001906123109291906131e2565b5060408201518160020160006101000a81548173ffffffffffffffffffffffffffffffffffffffff021916908373ffffffffffffffffffffffffffffffffffffffff16021790555060608201518160020160146101000a81548160ff0219169083151502179055506080820151816003015560a082015181600401559050507f3401aba7d2717bac7fdc0052919bae1dfa0c66f64e657513ceb444c2d4925799826020015183604001518460600151604051808473ffffffffffffffffffffffffffffffffffffffff1673ffffffffffffffffffffffffffffffffffffffff1681526020018373ffffffffffffffffffffffffffffffffffffffff1673ffffffffffffffffffffffffffffffffffffffff168152602001828152602001935050505060405180910390a1505b6001915050919050565b6000801b81565b80341461245957600080fd5b50565b6124696000801b33611d94565b6124db576040517f08c379a00000000000000000000000000000000000000000000000000000000081526004018080602001828103825260188152602001807f4f6e6c792061646d696e2063616e2063616c6c2074686973000000000000000081525060200191505060405180910390fd5b804711612550576040517f08c379a000000000000000000000000000000000000000000000000000000000815260040180806020018281038252601c8152602001807f4e6f7420656e6f7567682066756e647320696e20636f6e74726163740000000081525060200191505060405180910390fd5b8173ffffffffffffffffffffffffffffffffffffffff166108fc829081150290604051600060405180830381858888f19350505050158015612596573d6000803e3d6000fd5b505050565b6125a3613262565b6004600083815260200190815260200160002060405180610100016040529081600082015481526020016001820160009054906101000a900473ffffffffffffffffffffffffffffffffffffffff1673ffffffffffffffffffffffffffffffffffffffff1673ffffffffffffffffffffffffffffffffffffffff1681526020016002820160009054906101000a900473ffffffffffffffffffffffffffffffffffffffff1673ffffffffffffffffffffffffffffffffffffffff1673ffffffffffffffffffffffffffffffffffffffff1681526020016003820154815260200160048201548152602001600582015481526020016006820160009054906101000a900460ff161515151581526020016006820160019054906101000a900460ff16151515158152505090508060c00151612745576040517f08c379a000000000000000000000000000000000000000000000000000000000815260040180806020018281038252601a8152602001807f52656e746572206d75737420617070726f76652072657475726e00000000000081525060200191505060405180910390fd5b8060e001516127bc576040517f08c379a000000000000000000000000000000000000000000000000000000000815260040180806020018281038252601a8152602001807f52656e746565206d75737420617070726f76652072657475726e00000000000081525060200191505060405180910390fd5b3373ffffffffffffffffffffffffffffffffffffffff16816040015173ffffffffffffffffffffffffffffffffffffffff1614612861576040517f08c379a00000000000000000000000000000000000000000000000000000000081526004018080602001828103825260208152602001807f4f6e6c792072656e7465652063616e20636c61696d20636f6c6c61746572616c81525060200191505060405180910390fd5b6000816040015190506000612898606461288a6007548660a00151612d0890919063ffffffff16565b612d8e90919063ffffffff16565b905060006128b3828560a00151612c7490919063ffffffff16565b90506000600560003373ffffffffffffffffffffffffffffffffffffffff1673ffffffffffffffffffffffffffffffffffffffff16815260200190815260200160002054905061290c8282612c7490919063ffffffff16565b600560003373ffffffffffffffffffffffffffffffffffffffff1673ffffffffffffffffffffffffffffffffffffffff168152602001908152602001600020819055508373ffffffffffffffffffffffffffffffffffffffff166108fc839081150290604051600060405180830381858888f19350505050158015612995573d6000803e3d6000fd5b507fd0d850d59023b6970ac4731f3f5fcbeca1c3bf5c495629e12ade3a953ebdb93e8285604051808381526020018273ffffffffffffffffffffffffffffffffffffffff1673ffffffffffffffffffffffffffffffffffffffff1681526020019250505060405180910390a1505050505050565b6000612a28600080848152602001908152602001600020600001612dd8565b9050919050565b612a5560008084815260200190815260200160002060020154612a50612abe565b611d94565b612aaa576040517f08c379a000000000000000000000000000000000000000000000000000000000815260040180806020018281038252603081526020018061339c6030913960400191505060405180910390fd5b612ab48282612b59565b5050565b60015481565b600033905090565b612aed81600080858152602001908152602001600020600001612ded90919063ffffffff16565b15612b5557612afa612abe565b73ffffffffffffffffffffffffffffffffffffffff168173ffffffffffffffffffffffffffffffffffffffff16837f2f8788117e7eff1d82e926ec794901d17c78024a50270940304540a733656f0d60405160405180910390a45b5050565b612b8081600080858152602001908152602001600020600001612e1d90919063ffffffff16565b15612be857612b8d612abe565b73ffffffffffffffffffffffffffffffffffffffff168173ffffffffffffffffffffffffffffffffffffffff16837ff6391f5c32d9c69d2a47ea670b442974b53935d1edc7fd64eb21e047a839171b60405160405180910390a45b5050565b600080828401905083811015612c6a576040517f08c379a000000000000000000000000000000000000000000000000000000000815260040180806020018281038252601b8152602001807f536166654d6174683a206164646974696f6e206f766572666c6f77000000000081525060200191505060405180910390fd5b8091505092915050565b6000612cb683836040518060400160405280601e81526020017f536166654d6174683a207375627472616374696f6e206f766572666c6f770000815250612e4d565b905092915050565b6000612ccd8360000183612f0d565b60001c905092915050565b6000612d00836000018373ffffffffffffffffffffffffffffffffffffffff1660001b612f90565b905092915050565b600080831415612d1b5760009050612d88565b6000828402905082848281612d2c57fe5b0414612d83576040517f08c379a00000000000000000000000000000000000000000000000000000000081526004018080602001828103825260218152602001806133cc6021913960400191505060405180910390fd5b809150505b92915050565b6000612dd083836040518060400160405280601a81526020017f536166654d6174683a206469766973696f6e206279207a65726f000000000000815250612fb3565b905092915050565b6000612de682600001613079565b9050919050565b6000612e15836000018373ffffffffffffffffffffffffffffffffffffffff1660001b61308a565b905092915050565b6000612e45836000018373ffffffffffffffffffffffffffffffffffffffff1660001b6130fa565b905092915050565b6000838311158290612efa576040517f08c379a00000000000000000000000000000000000000000000000000000000081526004018080602001828103825283818151815260200191508051906020019080838360005b83811015612ebf578082015181840152602081019050612ea4565b50505050905090810190601f168015612eec5780820380516001836020036101000a031916815260200191505b509250505060405180910390fd5b5060008385039050809150509392505050565b600081836000018054905011612f6e576040517f08c379a000000000000000000000000000000000000000000000000000000000815260040180806020018281038252602281526020018061334b6022913960400191505060405180910390fd5b826000018281548110612f7d57fe5b9060005260206000200154905092915050565b600080836001016000848152602001908152602001600020541415905092915050565b6000808311829061305f576040517f08c379a00000000000000000000000000000000000000000000000000000000081526004018080602001828103825283818151815260200191508051906020019080838360005b83811015613024578082015181840152602081019050613009565b50505050905090810190601f1680156130515780820380516001836020036101000a031916815260200191505b509250505060405180910390fd5b50600083858161306b57fe5b049050809150509392505050565b600081600001805490509050919050565b60006130968383612f90565b6130ef5782600001829080600181540180825580915050600190039060005260206000200160009091909190915055826000018054905083600101600084815260200190815260200160002081905550600190506130f4565b600090505b92915050565b600080836001016000848152602001908152602001600020549050600081146131d6576000600182039050600060018660000180549050039050600086600001828154811061314557fe5b906000526020600020015490508087600001848154811061316257fe5b906000526020600020018190555060018301876001016000838152602001908152602001600020819055508660000180548061319a57fe5b600190038181906000526020600020016000905590558660010160008781526020019081526020016000206000905560019450505050506131dc565b60009150505b92915050565b828054600181600116156101000203166002900490600052602060002090601f016020900481019282601f1061322357805160ff1916838001178555613251565b82800160010185558215613251579182015b82811115613250578251825591602001919060010190613235565b5b50905061325e9190613325565b5090565b60405180610100016040528060008152602001600073ffffffffffffffffffffffffffffffffffffffff168152602001600073ffffffffffffffffffffffffffffffffffffffff1681526020016000815260200160008152602001600081526020016000151581526020016000151581525090565b6040518060c001604052806000815260200160608152602001600073ffffffffffffffffffffffffffffffffffffffff16815260200160001515815260200160008152602001600081525090565b61334791905b8082111561334357600081600090555060010161332b565b5090565b9056fe456e756d657261626c655365743a20696e646578206f7574206f6620626f756e6473416363657373436f6e74726f6c3a2073656e646572206d75737420626520616e2061646d696e20746f206772616e74416363657373436f6e74726f6c3a2073656e646572206d75737420626520616e2061646d696e20746f207265766f6b65536166654d6174683a206d756c7469706c69636174696f6e206f766572666c6f77416363657373436f6e74726f6c3a2063616e206f6e6c792072656e6f756e636520726f6c657320666f722073656c66a264697066735822122023dfae23ebc459933f11bd50045a841f3be91ff35519fd20655abb063fc7b3ab64736f6c63430006020033",
  "source": "//pragma solidity >= 0.4.24 <= 0.7.0;\npragma solidity ^0.6.0;\n\n// import \"@openzeppelin/contracts/token/ERC20/ERC20.sol\";\nimport \"@openzeppelin/contracts/access/AccessControl.sol\";\nimport \"@openzeppelin/contracts/math/SafeMath.sol\";\n\n//https://docs.openzeppelin.com/contracts/3.x/erc20\n\ncontract BikeRent is AccessControl {\n\n using SafeMath for uint256;\n\n uint public bikeCount;\n uint public bikeRentalsCount;\n mapping(uint => Bike) public bikes;\n mapping(uint => BikeRental) public bikeRentals;\n mapping(address => uint256) public lockedCollateral;\n uint contractInsuranceFunds;\n uint insurancePercentage = 10;\n\n struct Bike {\n   uint id;\n   string description;\n   address payable owner;\n   bool available;\n   uint256 rentPrice;\n   uint256 collateral;\n }\n \n struct BikeRental {\n   uint id;\n   address payable renter;\n   address payable rentee;\n   uint bike_id;\n   uint256 rentPrice;\n   uint256 collateral;\n   bool renterReturnApproval;\n   bool renteeReturnApproval;\n }\n\n event BikeCreation (\n   uint id,\n   string description,\n   address owner,\n   bool available,\n   uint256 rentPrice,\n   uint256 collateral\n );\n\n event BikeRented (\n   address renter,\n   address rentee,\n   uint bike_id,\n   uint256 rentPrice,\n   uint256 collateral\n );\n\n event BikeReturned (\n   address renter,\n   address rentee,\n   uint bike_id\n );\n\n event CollateralReturned (\n   uint collateral,\n   address rentee\n );\n\n constructor() public payable{\n     _setupRole(DEFAULT_ADMIN_ROLE, msg.sender);\n }\n\n function getBalance() public view returns (uint256) {\n   return address(this).balance;\n }\n\n function deposit(uint256 amount) payable public{\n   require(msg.value == amount);\n }\n\n function withdrawToAccount(address payable to, uint256 amount) public onlyAdmin {\n   require(address(this).balance > amount, \"Not enough funds in contract\");\n   to.transfer(amount);\n }\n\n function createBike(\n   string memory _description, \n   bool _available, \n   uint256 _rentPrice,\n   uint256 _collateral\n ) public {\n   // require valid name\n   require(bytes(_description).length > 0 , \"Bike must have description\");\n   // require a rent price\n   require(_rentPrice > 0, \"Bike must have a rent price\");\n   // require a collateral\n   require(_collateral> 0, \"Bike must have a collateral\");\n   // increase bike count \n   bikes[bikeCount] = Bike(bikeCount, _description, msg.sender, _available, _rentPrice, _collateral);\n   emit BikeCreation(bikeCount,_description, msg.sender, _available, _rentPrice, _collateral);\n   bikeCount ++;\n }\n\n function rentBike(uint _id) public payable {\n   // fetch bike\n   Bike memory _bike = bikes[_id];\n   // check if bike is available for rent \n   require(_bike.available, \"Oops, bike is not available\");\n   // check if transaction can cover collateral and rent price\n   require(msg.value == _bike.rentPrice.add(_bike.collateral), \"Insufficient funds\");\n   // fetch owner\n   address payable _renter = _bike.owner;\n   // check that renter is not rentee\n   require(_renter != msg.sender, \"You cant't rent your own bike!\");\n   // transfer collateral\n   uint256 collateral = uint256(msg.value).sub(_bike.rentPrice);\n   uint256 addressCollateral = lockedCollateral[address(msg.sender)];\n   lockedCollateral[address(msg.sender)] = collateral.add(addressCollateral);\n   uint256 rentPrice = uint256(msg.value).sub(_bike.collateral);\n   _renter.transfer(rentPrice);\n   _bike.available = false;\n   bikes[_id] = _bike;\n   bikeRentals[bikeRentalsCount] = BikeRental(\n                                              bikeRentalsCount,\n                                              _renter,\n                                              msg.sender,\n                                              _bike.id,\n                                              _bike.rentPrice,\n                                              _bike.collateral,\n                                              false,\n                                              false\n                                              ); \n   bikeRentalsCount++;\n   emit BikeRented(_renter, msg.sender, _bike.id, _bike.rentPrice, _bike.collateral);\n }\n\n function renterReturnApprove(uint _id) public returns (bool) {\n   BikeRental memory _bikeRental = bikeRentals[_id];\n   // require renter to be msg.sender\n   require(_bikeRental.renter == msg.sender, \"Only renter may approve this\");\n   // check if approval is not already stated\n   require(!_bikeRental.renterReturnApproval, \"Approval already stated\");\n   _bikeRental.renterReturnApproval = true;\n   bikeRentals[_id] = _bikeRental;\n   if( _bikeRental.renterReturnApproval && _bikeRental.renteeReturnApproval) {\n     Bike memory _bike = bikes[_bikeRental.bike_id];\n     _bike.available = true; \n     bikes[_bikeRental.bike_id] = _bike;\n     emit BikeReturned(\n                      _bikeRental.renter,\n                      _bikeRental.rentee,\n                      _bikeRental.bike_id\n                      );\n   }\n   return true;\n }\n\n function renteeReturnApprove(uint _id) public returns (bool) {\n   BikeRental memory _bikeRental = bikeRentals[_id];\n   require(_bikeRental.rentee == msg.sender, \"Only rentee may approve this\");\n   // check if approval is not already stated\n   require(!_bikeRental.renteeReturnApproval, \"Approval already stated\");\n   _bikeRental.renteeReturnApproval = true;\n   bikeRentals[_id] = _bikeRental;\n   if( _bikeRental.renterReturnApproval && _bikeRental.renteeReturnApproval) {\n     Bike memory _bike = bikes[_bikeRental.bike_id];\n     _bike.available = true; \n     bikes[_bikeRental.bike_id] = _bike;\n     emit BikeReturned(\n                      _bikeRental.renter,\n                      _bikeRental.rentee,\n                      _bikeRental.bike_id\n                      );\n   }\n   return true;\n }\n\n function claimCollateral (uint _id) public {\n   BikeRental memory _bikeRental = bikeRentals[_id];\n   require(_bikeRental.renterReturnApproval, \"Renter must approve return\");\n   require(_bikeRental.renteeReturnApproval, \"Rentee must approve return\");\n   require(_bikeRental.rentee == msg.sender, \"Only rentee can claim collateral\"); \n   // fetch rentee \n   address payable _rentee = _bikeRental.rentee;\n   // calculate collateral for insurance use\n   uint256 insuranceCollateral = _bikeRental.collateral.mul(insurancePercentage).div(100);\n   // calculate collateral to be returned\n   uint256 returnedCollateral = _bikeRental.collateral.sub(insuranceCollateral);\n   // get address total collateral\n   uint256 addressTotalCollateral = lockedCollateral[address(msg.sender)];\n   // set address new total collateral\n   lockedCollateral[address(msg.sender)] = addressTotalCollateral.sub(returnedCollateral);\n   // transfer claimed collateral\n   _rentee.transfer(returnedCollateral); \n   emit CollateralReturned(returnedCollateral, _rentee);\n }\n\n modifier onlyAdmin(){\n   require(\n     hasRole(\n       DEFAULT_ADMIN_ROLE, \n       msg.sender\n     ),\n     \"Only admin can call this\"\n   );\n   _;\n }\n\n}\n",
  "sourcePath": "/home/joaquin/dapp_practice/bike-rental-contract/contracts/BikeRent.sol",
  "compiler": {
    "name": "solc",
    "version": "0.6.2+commit.bacdbe57.Emscripten.clang"
  },
  "schemaVersion": "3.2.5",
  "updatedAt": "2020-11-27T20:46:22.681Z",
  "networkType": "ethereum",
  "devdoc": {
    "methods": {
      "getRoleAdmin(bytes32)": {
        "details": "Returns the admin role that controls `role`. See {grantRole} and {revokeRole}.     * To change a role's admin, use {_setRoleAdmin}."
      },
      "getRoleMember(bytes32,uint256)": {
        "details": "Returns one of the accounts that have `role`. `index` must be a value between 0 and {getRoleMemberCount}, non-inclusive.     * Role bearers are not sorted in any particular way, and their ordering may change at any point.     * WARNING: When using {getRoleMember} and {getRoleMemberCount}, make sure you perform all queries on the same block. See the following https://forum.openzeppelin.com/t/iterating-over-elements-on-enumerableset-in-openzeppelin-contracts/2296[forum post] for more information."
      },
      "getRoleMemberCount(bytes32)": {
        "details": "Returns the number of accounts that have `role`. Can be used together with {getRoleMember} to enumerate all bearers of a role."
      },
      "grantRole(bytes32,address)": {
        "details": "Grants `role` to `account`.     * If `account` had not been already granted `role`, emits a {RoleGranted} event.     * Requirements:     * - the caller must have ``role``'s admin role."
      },
      "hasRole(bytes32,address)": {
        "details": "Returns `true` if `account` has been granted `role`."
      },
      "renounceRole(bytes32,address)": {
        "details": "Revokes `role` from the calling account.     * Roles are often managed via {grantRole} and {revokeRole}: this function's purpose is to provide a mechanism for accounts to lose their privileges if they are compromised (such as when a trusted device is misplaced).     * If the calling account had been granted `role`, emits a {RoleRevoked} event.     * Requirements:     * - the caller must be `account`."
      },
      "revokeRole(bytes32,address)": {
        "details": "Revokes `role` from `account`.     * If `account` had been granted `role`, emits a {RoleRevoked} event.     * Requirements:     * - the caller must have ``role``'s admin role."
      }
    }
  },
  "userdoc": {
    "methods": {}
  }
}