{
  "contractName": "BikeLending",
  "abi": [
    {
      "inputs": [],
      "stateMutability": "payable",
      "type": "constructor",
      "payable": true
    },
    {
      "anonymous": false,
      "inputs": [
        {
          "indexed": true,
          "internalType": "bytes32",
          "name": "role",
          "type": "bytes32"
        },
        {
          "indexed": true,
          "internalType": "bytes32",
          "name": "previousAdminRole",
          "type": "bytes32"
        },
        {
          "indexed": true,
          "internalType": "bytes32",
          "name": "newAdminRole",
          "type": "bytes32"
        }
      ],
      "name": "RoleAdminChanged",
      "type": "event"
    },
    {
      "anonymous": false,
      "inputs": [
        {
          "indexed": true,
          "internalType": "bytes32",
          "name": "role",
          "type": "bytes32"
        },
        {
          "indexed": true,
          "internalType": "address",
          "name": "account",
          "type": "address"
        },
        {
          "indexed": true,
          "internalType": "address",
          "name": "sender",
          "type": "address"
        }
      ],
      "name": "RoleGranted",
      "type": "event"
    },
    {
      "anonymous": false,
      "inputs": [
        {
          "indexed": true,
          "internalType": "bytes32",
          "name": "role",
          "type": "bytes32"
        },
        {
          "indexed": true,
          "internalType": "address",
          "name": "account",
          "type": "address"
        },
        {
          "indexed": true,
          "internalType": "address",
          "name": "sender",
          "type": "address"
        }
      ],
      "name": "RoleRevoked",
      "type": "event"
    },
    {
      "inputs": [],
      "name": "BURNER_ROLE",
      "outputs": [
        {
          "internalType": "bytes32",
          "name": "",
          "type": "bytes32"
        }
      ],
      "stateMutability": "view",
      "type": "function",
      "constant": true
    },
    {
      "inputs": [],
      "name": "DEFAULT_ADMIN_ROLE",
      "outputs": [
        {
          "internalType": "bytes32",
          "name": "",
          "type": "bytes32"
        }
      ],
      "stateMutability": "view",
      "type": "function",
      "constant": true
    },
    {
      "inputs": [],
      "name": "MINTER_ROLE",
      "outputs": [
        {
          "internalType": "bytes32",
          "name": "",
          "type": "bytes32"
        }
      ],
      "stateMutability": "view",
      "type": "function",
      "constant": true
    },
    {
      "inputs": [
        {
          "internalType": "bytes32",
          "name": "role",
          "type": "bytes32"
        }
      ],
      "name": "getRoleAdmin",
      "outputs": [
        {
          "internalType": "bytes32",
          "name": "",
          "type": "bytes32"
        }
      ],
      "stateMutability": "view",
      "type": "function",
      "constant": true
    },
    {
      "inputs": [
        {
          "internalType": "bytes32",
          "name": "role",
          "type": "bytes32"
        },
        {
          "internalType": "uint256",
          "name": "index",
          "type": "uint256"
        }
      ],
      "name": "getRoleMember",
      "outputs": [
        {
          "internalType": "address",
          "name": "",
          "type": "address"
        }
      ],
      "stateMutability": "view",
      "type": "function",
      "constant": true
    },
    {
      "inputs": [
        {
          "internalType": "bytes32",
          "name": "role",
          "type": "bytes32"
        }
      ],
      "name": "getRoleMemberCount",
      "outputs": [
        {
          "internalType": "uint256",
          "name": "",
          "type": "uint256"
        }
      ],
      "stateMutability": "view",
      "type": "function",
      "constant": true
    },
    {
      "inputs": [
        {
          "internalType": "bytes32",
          "name": "role",
          "type": "bytes32"
        },
        {
          "internalType": "address",
          "name": "account",
          "type": "address"
        }
      ],
      "name": "grantRole",
      "outputs": [],
      "stateMutability": "nonpayable",
      "type": "function"
    },
    {
      "inputs": [
        {
          "internalType": "bytes32",
          "name": "role",
          "type": "bytes32"
        },
        {
          "internalType": "address",
          "name": "account",
          "type": "address"
        }
      ],
      "name": "hasRole",
      "outputs": [
        {
          "internalType": "bool",
          "name": "",
          "type": "bool"
        }
      ],
      "stateMutability": "view",
      "type": "function",
      "constant": true
    },
    {
      "inputs": [
        {
          "internalType": "bytes32",
          "name": "role",
          "type": "bytes32"
        },
        {
          "internalType": "address",
          "name": "account",
          "type": "address"
        }
      ],
      "name": "renounceRole",
      "outputs": [],
      "stateMutability": "nonpayable",
      "type": "function"
    },
    {
      "inputs": [
        {
          "internalType": "bytes32",
          "name": "role",
          "type": "bytes32"
        },
        {
          "internalType": "address",
          "name": "account",
          "type": "address"
        }
      ],
      "name": "revokeRole",
      "outputs": [],
      "stateMutability": "nonpayable",
      "type": "function"
    },
    {
      "inputs": [],
      "name": "getBalance",
      "outputs": [
        {
          "internalType": "uint256",
          "name": "",
          "type": "uint256"
        }
      ],
      "stateMutability": "view",
      "type": "function",
      "constant": true
    },
    {
      "inputs": [
        {
          "internalType": "uint256",
          "name": "amount",
          "type": "uint256"
        }
      ],
      "name": "deposit",
      "outputs": [],
      "stateMutability": "payable",
      "type": "function",
      "payable": true
    },
    {
      "inputs": [
        {
          "internalType": "address payable",
          "name": "to",
          "type": "address"
        },
        {
          "internalType": "uint256",
          "name": "amount",
          "type": "uint256"
        }
      ],
      "name": "withdrawToAccount",
      "outputs": [],
      "stateMutability": "nonpayable",
      "type": "function"
    }
  ],
  "bytecode": "0x60806040526100176000801b3361001c60201b60201c565b6101a4565b61002c828261003060201b60201c565b5050565b61005b816000808581526020019081526020016000206000016100cd60201b610a511790919060201c565b156100c95761006e61010360201b60201c565b73ffffffffffffffffffffffffffffffffffffffff168173ffffffffffffffffffffffffffffffffffffffff16837f2f8788117e7eff1d82e926ec794901d17c78024a50270940304540a733656f0d60405160405180910390a45b5050565b60006100fb836000018373ffffffffffffffffffffffffffffffffffffffff1660001b61010b60201b60201c565b905092915050565b600033905090565b600061011d838361018160201b60201c565b61017657826000018290806001815401808255809150506001900390600052602060002001600090919091909150558260000180549050836001016000848152602001908152602001600020819055506001905061017b565b600090505b92915050565b600080836001016000848152602001908152602001600020541415905092915050565b610da6806101b36000396000f3fe6080604052600436106100c25760003560e01c806391d148541161007f578063c2b1a47211610059578063c2b1a47214610373578063ca15c873146103ce578063d53913931461041d578063d547741f14610448576100c2565b806391d14854146102a7578063a217fddf1461031a578063b6b55f2514610345576100c2565b806312065fe0146100c7578063248a9ca3146100f2578063282c51f3146101415780632f2ff15d1461016c57806336568abe146101c75780639010d07c14610222575b600080fd5b3480156100d357600080fd5b506100dc6104a3565b6040518082815260200191505060405180910390f35b3480156100fe57600080fd5b5061012b6004803603602081101561011557600080fd5b81019080803590602001909291905050506104ab565b6040518082815260200191505060405180910390f35b34801561014d57600080fd5b506101566104ca565b6040518082815260200191505060405180910390f35b34801561017857600080fd5b506101c56004803603604081101561018f57600080fd5b8101908080359060200190929190803573ffffffffffffffffffffffffffffffffffffffff169060200190929190505050610503565b005b3480156101d357600080fd5b50610220600480360360408110156101ea57600080fd5b8101908080359060200190929190803573ffffffffffffffffffffffffffffffffffffffff16906020019092919050505061058c565b005b34801561022e57600080fd5b506102656004803603604081101561024557600080fd5b810190808035906020019092919080359060200190929190505050610625565b604051808273ffffffffffffffffffffffffffffffffffffffff1673ffffffffffffffffffffffffffffffffffffffff16815260200191505060405180910390f35b3480156102b357600080fd5b50610300600480360360408110156102ca57600080fd5b8101908080359060200190929190803573ffffffffffffffffffffffffffffffffffffffff169060200190929190505050610656565b604051808215151515815260200191505060405180910390f35b34801561032657600080fd5b5061032f610687565b6040518082815260200191505060405180910390f35b6103716004803603602081101561035b57600080fd5b810190808035906020019092919050505061068e565b005b34801561037f57600080fd5b506103cc6004803603604081101561039657600080fd5b81019080803573ffffffffffffffffffffffffffffffffffffffff1690602001909291908035906020019092919050505061069d565b005b3480156103da57600080fd5b50610407600480360360208110156103f157600080fd5b81019080803590602001909291905050506107dc565b6040518082815260200191505060405180910390f35b34801561042957600080fd5b50610432610802565b6040518082815260200191505060405180910390f35b34801561045457600080fd5b506104a16004803603604081101561046b57600080fd5b8101908080359060200190929190803573ffffffffffffffffffffffffffffffffffffffff16906020019092919050505061083b565b005b600047905090565b6000806000838152602001908152602001600020600201549050919050565b60405180807f4255524e45525f524f4c45000000000000000000000000000000000000000000815250600b019050604051809103902081565b610529600080848152602001908152602001600020600201546105246108c4565b610656565b61057e576040517f08c379a000000000000000000000000000000000000000000000000000000000815260040180806020018281038252602f815260200180610ce3602f913960400191505060405180910390fd5b61058882826108cc565b5050565b6105946108c4565b73ffffffffffffffffffffffffffffffffffffffff168173ffffffffffffffffffffffffffffffffffffffff1614610617576040517f08c379a000000000000000000000000000000000000000000000000000000000815260040180806020018281038252602f815260200180610d42602f913960400191505060405180910390fd5b610621828261095f565b5050565b600061064e826000808681526020019081526020016000206000016109f290919063ffffffff16565b905092915050565b600061067f82600080868152602001908152602001600020600001610a0c90919063ffffffff16565b905092915050565b6000801b81565b80341461069a57600080fd5b50565b6106aa6000801b33610656565b61071c576040517f08c379a00000000000000000000000000000000000000000000000000000000081526004018080602001828103825260188152602001807f4f6e6c792061646d696e2063616e2063616c6c2074686973000000000000000081525060200191505060405180910390fd5b804711610791576040517f08c379a000000000000000000000000000000000000000000000000000000000815260040180806020018281038252601c8152602001807f4e6f7420656e6f7567682066756e647320696e20636f6e74726163740000000081525060200191505060405180910390fd5b8173ffffffffffffffffffffffffffffffffffffffff166108fc829081150290604051600060405180830381858888f193505050501580156107d7573d6000803e3d6000fd5b505050565b60006107fb600080848152602001908152602001600020600001610a3c565b9050919050565b60405180807f4d494e5445525f524f4c45000000000000000000000000000000000000000000815250600b019050604051809103902081565b6108616000808481526020019081526020016000206002015461085c6108c4565b610656565b6108b6576040517f08c379a0000000000000000000000000000000000000000000000000000000008152600401808060200182810382526030815260200180610d126030913960400191505060405180910390fd5b6108c0828261095f565b5050565b600033905090565b6108f381600080858152602001908152602001600020600001610a5190919063ffffffff16565b1561095b576109006108c4565b73ffffffffffffffffffffffffffffffffffffffff168173ffffffffffffffffffffffffffffffffffffffff16837f2f8788117e7eff1d82e926ec794901d17c78024a50270940304540a733656f0d60405160405180910390a45b5050565b61098681600080858152602001908152602001600020600001610a8190919063ffffffff16565b156109ee576109936108c4565b73ffffffffffffffffffffffffffffffffffffffff168173ffffffffffffffffffffffffffffffffffffffff16837ff6391f5c32d9c69d2a47ea670b442974b53935d1edc7fd64eb21e047a839171b60405160405180910390a45b5050565b6000610a018360000183610ab1565b60001c905092915050565b6000610a34836000018373ffffffffffffffffffffffffffffffffffffffff1660001b610b34565b905092915050565b6000610a4a82600001610b57565b9050919050565b6000610a79836000018373ffffffffffffffffffffffffffffffffffffffff1660001b610b68565b905092915050565b6000610aa9836000018373ffffffffffffffffffffffffffffffffffffffff1660001b610bd8565b905092915050565b600081836000018054905011610b12576040517f08c379a0000000000000000000000000000000000000000000000000000000008152600401808060200182810382526022815260200180610cc16022913960400191505060405180910390fd5b826000018281548110610b2157fe5b9060005260206000200154905092915050565b600080836001016000848152602001908152602001600020541415905092915050565b600081600001805490509050919050565b6000610b748383610b34565b610bcd578260000182908060018154018082558091505060019003906000526020600020016000909190919091505582600001805490508360010160008481526020019081526020016000208190555060019050610bd2565b600090505b92915050565b60008083600101600084815260200190815260200160002054905060008114610cb45760006001820390506000600186600001805490500390506000866000018281548110610c2357fe5b9060005260206000200154905080876000018481548110610c4057fe5b9060005260206000200181905550600183018760010160008381526020019081526020016000208190555086600001805480610c7857fe5b60019003818190600052602060002001600090559055866001016000878152602001908152602001600020600090556001945050505050610cba565b60009150505b9291505056fe456e756d657261626c655365743a20696e646578206f7574206f6620626f756e6473416363657373436f6e74726f6c3a2073656e646572206d75737420626520616e2061646d696e20746f206772616e74416363657373436f6e74726f6c3a2073656e646572206d75737420626520616e2061646d696e20746f207265766f6b65416363657373436f6e74726f6c3a2063616e206f6e6c792072656e6f756e636520726f6c657320666f722073656c66a264697066735822122070544845270f58fec135e2bc7290c2b2dc4915f1a4ff30306233786f40eccd4b64736f6c63430006020033",
  "source": "//pragma solidity >= 0.4.24 <= 0.7.0;\npragma solidity ^0.6.0;\n\nimport \"@openzeppelin/contracts/token/ERC20/ERC20.sol\";\nimport \"@openzeppelin/contracts/access/AccessControl.sol\";\n\n//https://docs.openzeppelin.com/contracts/3.x/erc20\n\ncontract BikeLending is AccessControl {\n\n bytes32 public constant MINTER_ROLE = keccak256(\"MINTER_ROLE\");\n bytes32 public constant BURNER_ROLE = keccak256(\"BURNER_ROLE\");\n                                                   \n modifier onlyAdmin(){\n   require(\n     hasRole(\n       DEFAULT_ADMIN_ROLE, \n       msg.sender\n     ),\n     \"Only admin can call this\"\n   );\n   _;\n }\n\n constructor() public payable{\n     // Grant the minter role to a specified account\n     _setupRole(DEFAULT_ADMIN_ROLE, msg.sender);\n }\n\n function getBalance() public view returns (uint256) {\n   return address(this).balance;\n }\n\n function deposit(uint256 amount) payable public{\n   require(msg.value == amount);\n }\n\n function withdrawToAccount(address payable to, uint256 amount) public onlyAdmin {\n   require(address(this).balance > amount, \"Not enough funds in contract\");\n   to.transfer(amount);\n }\n\n}\n",
  "sourcePath": "/home/joaquin/dapp_practice/test-proyecto/contracts/BikeLending.sol",
  "compiler": {
    "name": "solc",
    "version": "0.6.2+commit.bacdbe57.Emscripten.clang"
  },
  "schemaVersion": "3.2.5",
  "updatedAt": "2020-11-14T12:11:09.082Z",
  "networkType": "ethereum",
  "devdoc": {
    "methods": {
      "getRoleAdmin(bytes32)": {
        "details": "Returns the admin role that controls `role`. See {grantRole} and {revokeRole}.     * To change a role's admin, use {_setRoleAdmin}."
      },
      "getRoleMember(bytes32,uint256)": {
        "details": "Returns one of the accounts that have `role`. `index` must be a value between 0 and {getRoleMemberCount}, non-inclusive.     * Role bearers are not sorted in any particular way, and their ordering may change at any point.     * WARNING: When using {getRoleMember} and {getRoleMemberCount}, make sure you perform all queries on the same block. See the following https://forum.openzeppelin.com/t/iterating-over-elements-on-enumerableset-in-openzeppelin-contracts/2296[forum post] for more information."
      },
      "getRoleMemberCount(bytes32)": {
        "details": "Returns the number of accounts that have `role`. Can be used together with {getRoleMember} to enumerate all bearers of a role."
      },
      "grantRole(bytes32,address)": {
        "details": "Grants `role` to `account`.     * If `account` had not been already granted `role`, emits a {RoleGranted} event.     * Requirements:     * - the caller must have ``role``'s admin role."
      },
      "hasRole(bytes32,address)": {
        "details": "Returns `true` if `account` has been granted `role`."
      },
      "renounceRole(bytes32,address)": {
        "details": "Revokes `role` from the calling account.     * Roles are often managed via {grantRole} and {revokeRole}: this function's purpose is to provide a mechanism for accounts to lose their privileges if they are compromised (such as when a trusted device is misplaced).     * If the calling account had been granted `role`, emits a {RoleRevoked} event.     * Requirements:     * - the caller must be `account`."
      },
      "revokeRole(bytes32,address)": {
        "details": "Revokes `role` from `account`.     * If `account` had been granted `role`, emits a {RoleRevoked} event.     * Requirements:     * - the caller must have ``role``'s admin role."
      }
    }
  },
  "userdoc": {
    "methods": {}
  }
}